:1000000012C021C020C01FC01EC01DC01CC01BC00C
:100010001AC021C018C055C016C015C030C013C0CA
:1000200012C011C010C011241FBECFE5D4E0DEBF46
:10003000CDBF21E0A0E6B0E001C01D92A835B20717
:10004000E1F7AED048C1DCCFA19AA29AA99AAA9AA8
:10005000A09AA89A08951F920F920FB60F9211249A
:100060008F931092600089B78E7F89BF83B78E7F90
:1000700083BF8F910F900FBE0F901F9018951F9206
:100080000F920FB60F9211248F939F93EF93FF93CC
:10009000E0916400F0E084B195B1EE0FFF1FEB59E1
:1000A000FF4F91838083809164008F5F8093640011
:1000B000FF91EF919F918F910F900FBE0F901F9026
:1000C00018951F920F920FB60F9211242F935F93E2
:1000D0006F937F938F939F93AF93BF93EF93FF9310
:1000E0008CB180932F0180912D018832A0F4209152
:1000F0002E0180912D0191E0980F90932D0190E0B9
:10010000820F911D68E270E08CD020912F01805DFC
:100110009E4FFC012083FF91EF91BF91AF919F9182
:100120008F917F916F915F912F910F900FBE0F90E4
:100130001F90189580912D018823E1F3F894809108
:100140002D01815080932D01E0912E0181E08E0FD1
:1001500080932E01F0E0E05DFE4F808190912E01B2
:10016000983210F010922E01789408955D9BFECF86
:100170008CB90895CF93DF93EC018991882311F016
:10018000F5DFFBCFDF91CF9108957894539A549A7D
:10019000579A80B5866880BD10BC83E389B90895FD
:1001A000CF93DF93CDB7DEB72A970FB6F894DEBFB3
:1001B0000FBECDBF49DF87B1846C87B9359A339ABA
:1001C000E4DFA898379A369A809164008436E0F389
:1001D000379810926400809164008436B8F4E091FE
:1001E0006400F0E0EE0FFF1FEB59FF4F808191811B
:1001F0004AE0BE016F5F7F4F3BD0BCDF8AE0B6DFD5
:10020000809164008F5F80936400E5CF80E090E090
:100210002A960FB6F894DEBF0FBECDBFDF91CF9107
:10022000089597FB072E16F4009406D077FD08D0AA
:100230000BD007FC05D03EF4909581959F4F089513
:10024000709561957F4F0895AA1BBB1B51E107C0B4
:10025000AA1FBB1FA617B70710F0A61BB70B881F56
:10026000991F5A95A9F780959095BC01CD010895E5
:10027000BB274A3031F4992322F4BDE29095819551
:100280009F4F01C0BB27FB015527AA27880F991F45
:10029000AA1FA41710F0A41B83955051B9F7A05DB5
:1002A000AA3308F0A95DA193009779F7B111B19332
:1002B0001192CB0100C0DC01FC01672F7191772303
:1002C000E1F7329704C07C916D9370836291AE1711
:0A02D000BF07C8F30895F894FFCFAC
:00000001FF
